:020000040000FA
:0300000002004AB1
:1000130002013B00000080FB12007AB900030200DA
:1000230034E4900200780279018002F0A3D8FCD96D
:10003300FA7582BA758301740012005C75821675B5
:100043008300740012005C75D0007581BF751000C9
:10005300751102759F0002001BC09FF59FE473D0CA
:100063009F22D083D082C09FE493C0E0740193C0E9
:10007300E0740293F59F2279012212006554010076
:100083001200658001002510C582C0E0E51134FF30
:10009300C583C0E0E510C3958224F810AF088583BB
:1000A300118582108008858311858210D2AFCEF02E
:1000B300A3E520F0A37808E608F0A3DEFAEFF0A3A7
:1000C300E58124FAF8E608F0A3E608F0A3E608F0D1
:1000D300A30808E608F0A3E608F0A315811581D06C
:1000E300E0FED0E0F8158115811581E8C0E0EEC08F
:1000F300E022851183851082E0A3FEE0A3F520783A
:1001030008E0A3F608DFFAE0A3FFE0A3C0E0E0A362
:10011300C0E0E0A3C0E0E0A3C0E0E0A3C0E010AF14
:10012300088582108583118008858210858311D20A
:10013300AFD083D082020062C0E0C0D0C082C0834F
:10014300C28BE5C1900200F0D083D082D0D0D0E042
:100153003253C6BFE59EA2E640FA53C6B875F10016
:1001630075F30C53FF3F43868053C51F43C50843B4
:10017300C23BD2E943864043A88402006274F7126B
:10018300008978007900801E8A828B83E0F5C18A1A
:10019300828B83A3AA82AB83A2E950FCC2E9E82441
:1001A30001F8E93400F9C3E89CE99DA2D265D03394
:1001B30040D67F010200F512007D900200E060FA54
:1001C3007C017D007A007B021200839002007400A0
:0301D300F080E7D2
:040000050000004AAD
:00000001FF
