:020000040000FA
:0300000002004AB1
:100013000201FE00000080FB12007AB90003020017
:1000230034E4900200780379018002F0A3D8FCD96C
:10003300FA758211758302740012005C758216755D
:100043008300740012005C75D0007581BF751000C9
:10005300751102759F0002001BC09FF59FE473D0CA
:100063009F22D083D082C09FE493C0E0740193C0E9
:10007300E0740293F59F22790122120065190200B0
:100083001200653202001200656A0200120065DF89
:1000930002002510C582C0E0E51134FFC583C0E02E
:1000A300E510C3958224F810AF088583118582106B
:1000B3008008858311858210D2AFCEF0A3E520F0AE
:1000C300A37808E608F0A3DEFAEFF0A3E58124FAAB
:1000D300F8E608F0A3E608F0A3E608F0A30808E6AC
:1000E30008F0A3E608F0A315811581D0E0FED0E067
:1000F300F8158115811581E8C0E0EEC0E022851175
:1001030083851082E0A3FEE0A3F5207808E0A3F640
:1001130008DFFAE0A3FFE0A3C0E0E0A3C0E0E0A3B0
:10012300C0E0E0A3C0E0E0A3C0E010AF0885821008
:100133008583118008858210858311D2AFD083D047
:1001430082020062C0D02510C582C0E0E51134FFF1
:10015300C583C0E0E510C3958224F310AF088583FF
:10016300118582108008858311858210D2AFC8F073
:10017300A3E9F0A3EAF0A3EBF0A37908E709F0A35E
:10018300D8FAECF0A3EDF0A3EEF0A3EFF0A3D0E0E8
:10019300F0A3D0E0F0A3D0E0F0A3E520F0A3E5F0D6
:1001A300F0A322851183851082E0C0E0A3E0F9A3C8
:1001B300E0FAA3E0FBA37808E0F608A3DFFAE0FC8B
:1001C300A3E0FDA3E0FEA3E0FFA3E0C0E0A3E0C043
:1001D300E0A3E0F5D0A3E0F520A3E0A3F5F010AF92
:1001E300088583118582108008858311858210D24A
:1001F300AFD082D083D0E0F8D0E032C0E074F21206
:100203000147C28BA9C11200897F010201A6120016
:100213007D12008F80FE53F46C43FE9353F3FD4332
:10022300FD02D294D281D290D291C297020062741D
:10023300016A7004740080027401F8E914600B14FD
:10024300600F146013146017801AE8A2E092948080
:1002530013E8A2E09281800CE8A2E092908005E886
:10026300A2E0929102006274F7120095E9FE740D08
:100273006E6064740A6E605F74206E605A90020050
:10028300E07018EEC39431C39404504B74D02E9095
:100293000201F09002007401F0803C74306E60053E
:1002A30074316E701474D02EFA900201E0F91200CA
:1002B300839002007400F0801EEEC39431C3940453
:1002C300500F74D02E900201F09002007401F08060
:1002D300069002007400F07F0102010153C6BFE5DE
:1002E3009EA2E640FA53C6B875F10075F30C53FFAE
:1002F3003F43868053C51F43C50843C23BD2E943EE
:08030300864043A88402006259
:040000050000004AAD
:00000001FF
