:020000040000FA
:0300000002004AB1
:1000130002020A00000080FB12007AB9000302000A
:1000230034E4900200780A79018002F0A3D8FCD965
:10003300FA75821D758302740012005C7582167551
:100043008300740012005C75D0007581BF751000C9
:10005300751102759F0002001BC09FF59FE473D0CA
:100063009F22D083D082C09FE493C0E0740193C0E9
:10007300E0740293F59F22790122120065280200A1
:100083001200656102001200659102001200651200
:1000930003001200653503001200656A0400251091
:1000A300C582C0E0E51134FFC583C0E0E510C39508
:1000B3008224F810AF088583118582108008858318
:1000C30011858210D2AFCEF0A3E520F0A37808E625
:1000D30008F0A3DEFAEFF0A3E58124FAF8E608F0CE
:1000E300A3E608F0A3E608F0A30808E608F0A3E6F1
:1000F30008F0A315811581D0E0FED0E0F815811535
:10010300811581E8C0E0EEC0E0228511838510826D
:10011300E0A3FEE0A3F5207808E0A3F608DFFAE009
:10012300A3FFE0A3C0E0E0A3C0E0E0A3C0E0E0A33E
:10013300C0E0E0A3C0E010AF088582108583118082
:1001430008858210858311D2AFD083D082020062EA
:10015300C0D02510C582C0E0E51134FFC583C0E0DF
:10016300E510C3958224F310AF08858311858210AF
:100173008008858311858210D2AFC8F0A3E9F0A36C
:10018300EAF0A3EBF0A37908E709F0A3D8FAECF0BF
:10019300A3EDF0A3EEF0A3EFF0A3D0E0F0A3D0E043
:1001A300F0A3D0E0F0A3E520F0A3E5F0F0A32285CF
:1001B3001183851082E0C0E0A3E0F9A3E0FAA3E095
:1001C300FBA37808E0F608A3DFFAE0FCA3E0FDA3B5
:1001D300E0FEA3E0FFA3E0C0E0A3E0C0E0A3E0F5FE
:1001E300D0A3E0F520A3E0A3F5F010AF08858311B9
:1001F3008582108008858311858210D2AFD082D08A
:1002030083D0E0F8D0E032C0E074F2120153C28B25
:10021300A9C11200957F010201B212007D12009B59
:1002230012008980FBC082C08353F46C43FE935356
:10023300F3FD43FD029002007400F090020174008C
:10024300F09002027400F09002037400F0D294D292
:1002530081D290D291C297D083D08202006274F689
:100263001200A1E9C39401C39404501DEAC3946529
:100273005017EAC0E0890875090074FF2508F58264
:1002830074013509F583D0E0F07F0202010DC082CD
:10029300C083900200E0F8900208E0C3985004780D
:1002A3000080027801E8A2E09294900201E0F890C5
:1002B3000208E0C3985004780080027801E8A2E0C5
:1002C3009281900202E0F8900208E0C3985004780B
:1002D3000080027801E8A2E09290900203E0F89097
:1002E3000208E0C3985004780080027801E8A2E095
:1002F3009291900208E02401F0900208E0C3946414
:1003030040069002087400F0D083D082020062C0DD
:1003130082C0839002047400F09002057400F09090
:1003230002067400F09002077400F0D083D08202BA
:10033300006274F71200A1E9FE740D6E6005740A81
:100343006E703A900204E06403702C900207E0643C
:10035300017024900206E0700C7A00900205E0F927
:100363001200838012900206E06401700A7A64909E
:100373000205E0F912008312008F02046590020463
:10038300E0600C14602214604414607C020462EE8A
:10039300C39431C39404500D74D02E900205F09091
:1003A30002047401F002046574206E700890020464
:1003B3007402F08015EEC39431C39404500974D0D1
:1003C3002E900205F0800312008F02046574206EE4
:1003D3007003020465EEC39430C3940A502574D0AD
:1003E3002E900206F09002077401F0900204740349
:1003F300F0900206E0706B7A00900205E0F91200BB
:1004030083805F12008F805AEEC39430C3940A50E6
:1004130032900207E0C39403502475F00A90020659
:10042300E0A42E24D0900206F0900207E02401F00D
:10043300900206E0C39465402912008F80241200C5
:100443008F801F74256E7012900206E0FA900205E9
:10045300E0F912008312008F800812008F800312CC
:10046300008F7F0102010D53C6BFE59EA2E640FA4D
:1004730053C6B875F10075F30C53FF3F43868053A1
:10048300C51F43C50843C23BD2E943864043A88402
:0304930002006202
:040000050000004AAD
:00000001FF
