:020000040000FA
:1000000002003700000080FB120067B90003020005
:1000100021E4900200781A79018002F0A3D8FCD97B
:10002000FA75829075830174001200497582037518
:100030008300740012004975D0007581BF751000EF
:10004000751102759F00020008C09FF59FE473D0F0
:100050009F22D083D082C09FE493C0E0740193C0FC
:10006000E0740293F59F22790122120052010200EE
:100070001200521002001200523B02001200524CB9
:100080000200120052880200120052930200120075
:1000900052AF0200120052BA0200120052E30200F4
:1000A000120052EE02001200521D03001200527E96
:1000B0000300120052800400120052970500251020
:1000C00010AF08F510400215118008F51040021518
:1000D00011D2AF222510F582E43511F583222510C7
:1000E000C582C0E0E51134FFC583C0E0E510C395CB
:1000F0008224F810AF0885831185821080088583DB
:1001000011858210D2AFCEF0A3E520F0A37808E6E7
:1001100008F0A3DEFAEFF0A3E58124FAF8E608F090
:10012000A3E608F0A3E608F0A30808E608F0A3E6B3
:1001300008F0A315811581D0E0FED0E0F8158115F7
:10014000811581E8C0E0EEC0E02285118385108230
:10015000E0A3FEE0A3F5207808E0A3F608DFFAE0CC
:10016000A3FFE0A3C0E0E0A3C0E0E0A3C0E0E0A301
:10017000C0E0E0A3C0E010AF088582108583118045
:1001800008858210858311D2AFD083D08202004FC0
:1001900074FE1200BE74011200D47400F085108247
:1001A0008511837400F012006A1200821200881216
:1001B000009A7AE87B0312007C80157A007B021299
:1001C00000B87A007B021200947AE87B0312007C6C
:1001D000851082851183AC82AD8374011200D4AA8C
:1001E00082AB831200ACE960D2851082851183E076
:1001F000FC74011200D4E0F97A007B021200B28094
:10020000C153C6BFE59EA2E640FA53C6B802004FEE
:1002100000000000000000000000000000000000DE
:1002200000000000000000000000000000000000CE
:10023000000000000000000002004FC082C08312D6
:100240000070120070D083D08202004F74F512004B
:10025000DEEAFEEBFF7508007509008018120076D3
:10026000050AE50AC3946440F4E5082401F508E5AD
:10027000093400F509C3E5089EE5099F5005750A94
:100280000080DF7F0302014A53F47F43FE80C29760
:1002900002004F53F1FE43F30C53FF3F438680E5CA
:1002A000C554E0440BF5C575C2D8C2E902004F89B8
:1002B000C1A2E950FCC2E902004F74F71200DEEA65
:1002C000FEEBFF80128E828F83E0F912008E8E8209
:1002D0008F83A3AE82AF838E828F83E070E77F012E
:1002E00002014A53F5FE43FF01D2A002004F74F70A
:1002F0001200DE8908EAFEEBFF800B120070EE248C
:10030000FFFEEF34FFFFEE4F600CA2A0E433650860
:1003100070E97901800279007F0102014A74F712C5
:1003200000DE7E009002187400F07F0080010FEF65
:10033000C3940850427A647B0079011200A0E970EE
:100340000A9002187401F07900802E1200761200D3
:1003500076120076EEC333FEA2A05005D3EE92E0F3
:10036000FE7A647B0079001200A0E970C190021847
:100370007401F079008002EEF97F0102014A74F203
:100380001200DE8A088B09ECFEEDFF43FF01C2A0DC
:100390007A147B0012007CD2A053FFFE120076126A
:1003A00000761200767A147B0079001200A0E970C2
:1003B0000A43FF01D2A0790002047B7A647B0079B2
:1003C000011200A0E9700A43FF01D2A079000204E3
:1003D0007B7A647B0079001200A0E9700A43FF0178
:1003E000D2A0790002047B1200A6E9F50B90021856
:1003F000E0600943FF01D2A07900807F1200A6E9E6
:10040000F50C900218E0600943FF01D2A07900804A
:100410006A1200A6E9F50A900218E0600943FF019C
:10042000D2A0790080551200A6E9F50D900218E0DF
:10043000600943FF01D2A0790080401200A6E9F8CC
:10044000900218E0600943FF01D2A07900802C439C
:10045000FF01D2A0E50B250C250A250DF9E86960FE
:100460000479008016E50B850882850983E50BF089
:10047000E50A8E828F83E50AF079017F0602014A40
:10048000C082C0838A828B837454F08A828B83A358
:100490007465F08A828B83A3A3746DF08A828B8348
:1004A000A3A3A37470F08A828B83A3A3A3A3743A3B
:1004B000F075F00AEC8424308A828B83A3A3A3A373
:1004C000A3F0EC75F00A84E5F024308A828B83A3D4
:1004D000A3A3A3A3A3F08A828B83A3A3A3A3A3A311
:1004E000A37443F08A828B83A3A3A3A3A3A3A3A390
:1004F0007420F08A828B83A3A3A3A3A3A3A3A3A3A3
:100500007448F08A828B83A3A3A3A3A3A3A3A3A36A
:10051000A37475F0EA240BF582EB3400F583746D57
:10052000F0EA240CF582EB3400F583743AF075F0B0
:100530000AE9842430C0E0EA240DF582EB3400F5AA
:1005400083D0E0F0E975F00A84E5F02430C0E0EAF9
:10055000240EF582EB3400F583D0E0F0EA240FF5A9
:1005600082EB3400F5837425F0EA2410F582EB3435
:1005700000F583740DF0EA2411F582EB3400F58365
:10058000740AF0EA2412F582EB3400F5837400F06B
:10059000D083D08202004FC082C0838A828B837452
:1005A00044F08A828B83A37448F08A828B83A3A34E
:1005B0007454F08A828B83A3A3A37431F08A828B54
:1005C00083A3A3A3A37431F08A828B83A3A3A3A3E1
:1005D000A37420F08A828B83A3A3A3A3A3A3747222
:1005E000F08A828B83A3A3A3A3A3A3A37465F08A39
:1005F000828B83A3A3A3A3A3A3A3A37461F08A8282
:100600008B83A3A3A3A3A3A3A3A3A37464F08A824D
:100610008B83A3A3A3A3A3A3A3A3A3A37420F0EA00
:10062000240BF582EB3400F5837466F0EA240CF5B4
:1006300082EB3400F5837461F0EA240DF582EB342B
:1006400000F5837469F0EA240EF582EB3400F5833B
:10065000746CF0EA240FF582EB3400F583740DF02E
:10066000EA2410F582EB3400F583740AF0EA2411D1
:10067000F582EB3400F5837400F0D083D082020061
:010680004F2A
:0400000500000037C0
:00000001FF
