:020000040000FA
:030000000200B249
:03000B000201E807
:10007B000201B500000080FB1200E2B90003020090
:10008B009CE4900200780279018002F0A3D8FCD99D
:10009B00FA7582EB75830174001200C475827E754C
:1000AB00830074001200C475D0007581BF751000F9
:1000BB00751102759F00020083C09FF59FE473D0FA
:1000CB009F22D083D082C09FE493C0E0740193C081
:1000DB00E0740293F59F227901221200CD68020091
:1000EB001200CD8102001200CD8C02001200CDBB9C
:1000FB0002001200CDF402002510C582C0E0E5110C
:10010B0034FFC583C0E0E510C3958224F810AF0817
:10011B008583118582108008858311858210D2AF6B
:10012B00CEF0A3E520F0A37808E608F0A3DEFAEF03
:10013B00F0A3E58124FAF8E608F0A3E608F0A3E6BD
:10014B0008F0A30808E608F0A3E608F0A31581154C
:10015B0081D0E0FED0E0F8158115811581E8C0E073
:10016B00EEC0E022851183851082E0A3FEE0A3F5AB
:10017B00207808E0A3F608DFFAE0A3FFE0A3C0E0D5
:10018B00E0A3C0E0E0A3C0E0E0A3C0E0E0A3C0E0D8
:10019B0010AF0885821085831180088582108583B6
:1001AB0011D2AFD083D0820200CAC0E0C0D0C082CF
:1001BB00C083E58AA2E5500B9002007401F0538ACC
:1001CB00DF800FE58AA2E650099002007402F0531B
:1001DB008ABFC2EBD083D082D0D0D0E032C28D3276
:1001EB007F007E001200E51200FD8015EEF9120073
:1001FB00F17AC87B001200F70EEEC3940440027E26
:10020B0000900200E06031900200E0F508900200DF
:10021B007400F07A0A7B001200F774016508700A0B
:10022B00A29540067F017E00800E7402650870085F
:10023B00A29640047F027E0374016F60AF74026F5D
:10024B007016EEF91200F17AC87B001200F7EE700F
:10025B00047E0380AC1E80A91200EB80A453F46CC7
:10026B0043FE9353F3FD43FD02D294D281D290D23D
:10027B0091C2970200CAD294D281D290D29102003D
:10028B00CA74F7120103E9FE1200EBEE7004C2947C
:10029B00801974016E7004C281801074026E700438
:1002AB00C290800774036E7002C2917F0102016FCE
:1002BB007C007D00801EE82401F8E93400F9C3E8D6
:1002CB009442E99402A2D265D03340EAEC2401FCBB
:1002DB00ED3400FDC3EC9AED9BA2D265D0335006F2
:1002EB007800790080D80200CA53F49F53FE9F43D5
:1002FB009A10438C04438D60758A00C2EBD2AF0217
:02030B0000CA26
:04000005000000B245
:00000001FF
